:020000040800F2
:1000000028040020C1170008C9170008CB170008F2
:10001000CD170008CF170008D11700080000000016
:10002000000000000000000000000000D3170008DE
:10003000D517000800000000D7170008E7030008E4
:10004000DB170008DB170008DB170008DB170008C8
:10005000DB170008DB170008DB170008DB170008B8
:10006000DB170008DB170008DB170008DB170008A8
:10007000DB170008DB170008DB170008DB17000898
:10008000DB170008DB170008DB170008DB17000888
:10009000DB170008DB170008DB170008DB17000878
:1000A000DB170008DB170008DB170008DB17000868
:1000B000DB170008DB170008DB170008DB17000858
:1000C000DB170008DB170008DB170008DB17000848
:1000D000DB170008DB170008DB170008DB17000838
:1000E000DB170008DB170008DB170008DB17000828
:1000F000DB170008DB170008DB170008DB17000818
:10010000DB170008DB170008DB170008DB17000807
:10011000DB170008DB170008DB170008DB170008F7
:10012000DB170008DB170008DB170008DB170008E7
:10013000DB170008DB170008DB170008DB170008D7
:10014000DB170008DB170008DB170008DB170008C7
:10015000DB170008DB170008DB170008DB170008B7
:10016000DB170008DB170008DB170008DB170008A7
:10017000DB170008DB170008DB1700080000000091
:10018000DB170008DB170008DB170008DB17000887
:10019000DB170008DB170008DB170008DB17000877
:1001A000DB170008DB170008DB170008DFF80CD0AE
:1001B00001F0A8FB00480047D902000828040020ED
:1001C00010B50446884A32F81410884A52F82400C0
:1001D000002200F094FC10BD10B50446824A32F8AB
:1001E0001410824A52F82400012200F088FC10BD4D
:1001F00010B586B0044634B97D48006840F480707C
:100200007B49086017E0012C06D17948006840F46A
:100210008070774908600EE0022C06D174480068AF
:1002200040F480707249086005E07148006840F44D
:1002300080706F4908606C4830F81400019001200C
:100240000290039002200490684951F8240001A90B
:1002500000F000FB644A32F81410644A52F824009B
:10026000012200F04CFC06B010BD00B591B0604812
:100270001030006840F080505D49103108605D48E2
:10028000006840F440405B49086001200090019004
:100290000220069041050791192108914FF4B4718D
:1002A000099102210A9107210B91684600F09AFDFD
:1002B00000F0AAFC0F200C9002200D9000200E9060
:1002C0004FF4A0500F904FF48050109005210CA8CF
:1002D00000F084FF11B000BD08B500F0A2F8FFF7F0
:1002E000C4FF0020FFF784FF0120FFF781FF0220F9
:1002F000FFF77EFF0320FFF77BFF67E00020FFF79B
:100300006BFF0020009002E00098401C00903A49EA
:1003100000988842F8D30120FFF75EFF002000908C
:1003200002E00098401C0090334900988842F8D3BE
:100330000220FFF751FF0020009002E00098401CCF
:1003400000902D4900988842F8D30320FFF744FF1E
:100350000020009002E00098401C00902649009880
:100360008842F8D30020FFF72BFF0020009002E026
:100370000098401C0090204900988842F8D3012042
:10038000FFF71EFF0020009002E00098401C009044
:10039000194900988842F8D30220FFF711FF002086
:1003A000009002E00098401C009013490098884299
:1003B000F8D30320FFF704FF0020009002E000982C
:1003C000401C00900C4900988842F8D396E710B57D
:1003D0000446054A32F81410044A52F82400002258
:1003E00000F08DFB10BD704746190008000000208A
:1003F00030380240007000403F420F00704770B537
:10040000044601F0D9F84FF47A71B0FBF1F52846B3
:1004100000F056F900222146501E00F0DBF80020C3
:1004200070BD10B55348006840F400705149086031
:100430000846006840F4806008600846006840F4A0
:1004400080700860032000F0B3F80F20FFF7D7FF9B
:10045000FFF7D4FF002010BD704710B54FF0FF30FC
:100460004549086000200860401E091D0860002002
:100470000860401E40491039086000200860401E96
:10048000091D086000200860401E091D086000204A
:100490000860FFF7E1FF002010BD38480068401CED
:1004A00036490860704735480068704731B5002408
:1004B000FFF7F9FF044600BFFFF7F5FF001B0099A7
:1004C0008842F9D338BD4FF0E020006920F00200E7
:1004D0004FF0E021086170474FF0E020006940F0E4
:1004E00002004FF0E0210861704725487047254819
:1004F0000068000C704723480068C0F30B00704789
:100500002048406840F001001E49486070471D487F
:10051000406820F001001B49486070471948406856
:1005200040F002001749486070471648406820F0C4
:1005300002001449486070471248406840F00400C7
:100540001049486070470F48406820F004000D498A
:100550004860704701200C490860704700200A4934
:100560000860704701200949086270470020074968
:1005700008627047003C0240203802401000002012
:1005800000000101002004E000042742000027428F
:1005900010B5002807DA0A07140EA94A00F00F0365
:1005A0001B1FD45403E00A07130EA64A135410BDB0
:1005B00000BF00F00702A24B0C3B19684FF6FF0387
:1005C0001940A14B0B4343EA02219D4B0C3B1960A0
:1005D00000BF70472DE9F05F80460D4616460027A4
:1005E00000F027F9074639462A46334601F007004E
:1005F000C0F1070ABAF1040F02D94FF0040A01E072
:10060000C0F1070AD14600F1040ABAF1070F02D27D
:100610004FF0000A01E0A0F1030AD4464FF0010AAE
:100620000AFA09FAAAF1010A0AEA020A0AFA0CFA13
:100630004FF0010B0BFA0CFBABF1010B0BEA030BB8
:100640004AEA0B0421464046FFF7A2FFBDE8F09FAF
:1006500000BF00F01F02012191404209920002F107
:10066000E022C2F8001100BF704700BF00F01F0277
:1006700001219140754A430942F8231000BF704799
:1006800000BF00BF00BF00BF00BFBFF34F8F00BF60
:1006900000BF00BF6A480C38006800F4E0606A4997
:1006A0000843001D66490C39086000BF00BF00BF49
:1006B000BFF34F8F00BF00BF00BF00BF00BFFDE70B
:1006C00070B504462546681EB0F1807F01D3012035
:1006D0000FE0681E4FF0E02148610F214FF0FF301E
:1006E000FFF756FF00204FF0E021886107200861E6
:1006F000002070BD10B500F09CF810BD2DE9F0434E
:1007000004462046002808DA4D4F00F00F0CACF1EB
:10071000040C17F80C703F0902E04A4F3F5C3F0998
:100720003D460E4606F00700C0F10708B8F1040F79
:1007300002D94FF0040801E0C0F10708C44600F1F7
:100740000408B8F1070F02D24FF0000801E0A0F151
:100750000308474625FA07F84FF0010909FA0CF992
:10076000A9F1010908EA0908C2F800804FF0010860
:1007700008FA07F8A8F1010808EA0508C3F800809C
:1007800000BFBDE8F08300BF00F01F0201219140CF
:100790002E4A8032430942F8231000BF704710B53B
:1007A00001460846294A8032430952F8232000F0C6
:1007B0001F040123A3401A400AB1012200E00022D5
:1007C000104610BD00BF00F01F0201219140204AD9
:1007D000430942F8231000BF704710B50146084690
:1007E0001B4A8032430952F8232000F01F040123E2
:1007F000A3401A400AB1012200E00022104610BDB9
:10080000042808D14FF0E021096941F004014FF0BC
:10081000E022116107E04FF0E021096921F00401B5
:100820004FF0E02211617047704710B5FFF7FCFFF1
:1008300010BD03480C380068C0F302207047000068
:1008400018ED00E000E400E00000FA0580E100E0BF
:1008500080E200E0F0B502460B46002500240020AF
:100860000021DCE0012606FA01F51E6806EA05040F
:10087000AC426ED15E68022E02D05E68122E13D199
:10088000CF0802F1200656F827004E07F70E0F2674
:10089000BE40B0434F07FF0E1E69BE403043CF0835
:1008A00002F1200646F8270010684F000326BE40DC
:1008B000B0431E7906F003064F00BE40304310607F
:1008C0005E68012E08D05E68022E05D05E68112E8B
:1008D00002D05E68122E13D190684F000326BE40EE
:1008E000B0434F00DE68BE40304390605068012640
:1008F0008E40B0431E79C6F300168E4030435060E0
:10090000D0684F000326BE40B0434F009E68BE40F3
:100910003043D0605E6806F08056B6F1805F7DD1CE
:100920008E4E366846F480468C4F3E608C4E8F0863
:1009300056F827008E07370F0F26BE40B043894E6A
:10094000B24201D100262EE0874EB24202D10126EA
:1009500029E063E0854EB24201D1022623E0844EB5
:10096000B24201D103261EE0824EB24201D10426DA
:1009700019E0814EB24201D1052614E07F4EB24209
:1009800001D106260FE07E4EB24201D107260AE0D1
:100990007C4EB24201D1082605E07B4EB24201D125
:1009A000092600E00A268F073F0FBE4030436C4EF9
:1009B0008F0846F82700754E3068A0435E6806F43D
:1009C0008036B6F5803F00D12043704E3060361D32
:1009D0003068A0435E6806F40036B6F5003F00D1EB
:1009E00020436A4E361D3060361D3068A0435E6875
:1009F00006F48016B6F5801F00D12043634E0836FA
:100A00003060361D3068A0435E6806F40016B6F507
:100A1000001F00D120435D4E0C363060491C102968
:100A2000FFF420AFF0BDF0B502460B4600240021D4
:100A30000025002058E0012606FA00F403EA04012C
:100A4000A14250D116684FEA400C032707FA0CF771
:100A5000BE431660C70802F1200656F82760470714
:100A60004FEAD76C0F2707FA0CF7BE434FEAD00CBA
:100A700002F1200747F82C6096684FEA400C0327E4
:100A800007FA0CF7BE439660576801268640B743C5
:100A90005760D6684FEA400C032707FA0CF7BE43AD
:100AA000D6608607370F0F2606FA07F52C4E870803
:100AB00056F82770AF434FEA900C46F82C70334E2F
:100AC00036688E43314F3E603E1D36688E433F1D73
:100AD0003E603E1D36688E433F1D3E603E1D3668BB
:100AE0008E433F1D3E60401C1028A4D3F0BD02463B
:100AF00013690B400BB1012000E0002070470AB1E0
:100B0000018300E04183704742694A404261704777
:100B100008B502464FF480300090009808430090DA
:100B20000098D061D1610098D061D0690090D069FF
:100B300000F4803008B1002008BD0120FCE77047B8
:100B400010B50446114814300068204028B10F4801
:100B5000143004602046FFF7F2FF10BD4438024015
:100B60000838014000000240000402400008024032
:100B7000000C024000100240001402400018024025
:100B8000001C02400020024000240240003C0140C2
:100B900010B50024012077490860FFF784FC044663
:100BA00007E0FFF780FC001BB0F57A7F01D9032036
:100BB00010BD71484068C0F3C0000028F1D000208B
:100BC000F6E710B5002400206A490860FFF76BFCC7
:100BD000044607E0FFF767FC001BB0F57A7F01D9F8
:100BE000032010BD64484068C0F3C0000028F1D164
:100BF00000BFF6E701205F49A43948627047002032
:100C00005C49A4394862704710B500245B4800680D
:100C100040F080505949086001205649A4390864C1
:100C2000FFF741FC044607E0FFF73DFC001BB0F571
:100C30007A7F01D9032010BD4F48406800F480300E
:100C4000B0F5803FF0D101204A49A4394864FFF74C
:100C50002AFC044607E0FFF726FC001BB0F57A7F6C
:100C600001D90320E7E74448406800F40030B0F5BC
:100C7000003FF0D10020DEE710B500243F480068B7
:100C800040F080503D49086000203A49A43948644A
:100C9000FFF709FC044607E0FFF705FC001BB0F571
:100CA0007A7F01D9032010BD3348406800F400303A
:100CB000B0F5003FF0D000202E49A4390864FFF7BA
:100CC000F2FB044607E0FFF7EEFB001BB0F57A7F6E
:100CD00001D90320E7E72848406800F48030B0F5E8
:100CE000803FF0D00020DEE72DE9F04105460E46BA
:100CF000002400272148006840F080501F49086008
:100D00001D48406840F440201B4948600846006880
:100D100040F440200860FFF7C6FB074608E0FFF7F5
:100D2000C2FBC01BB0F57A7F02D90320BDE8F08179
:100D30001148406800F44020B0F5402FEFD00E4835
:100D4000046840F6034084432C430B4804600C487D
:100D5000006840F004000A490860012E01D130BF4C
:100D600000E020BF0648006820F004000449086045
:100D70000020DBE7A4000E42007000404038024033
:100D800010ED00E0FA48006840F08100F849086082
:100D90000020F74908310860F5480068F549084027
:100DA000F34908600020091D086008460068F24900
:100DB0000843EF49091D08600020ED4984310860AF
:100DC00008460068ED490843E94984310860E8486D
:100DD000006820F48020E64908600020E4490C31D6
:100DE0000860704770B504460025207800F00100C7
:100DF000002865D0DE480830006800F00C000428A8
:100E00000ED0DB480830006800F00C00082812D132
:100E1000D748001D006800F48000B0F5800F0AD1AB
:100E2000D3480068C0F34040002849D060680128DA
:100E300046D0012070BD0020CD49891C0870FFF705
:100E400032FB054608E0FFF72EFB401B41F28831DC
:100E5000884201D90320EDE7C5480068C0F340404F
:100E60000028F0D12079C249891C087060680128E7
:100E700013D1FFF718FB054608E0FFF714FB401BF2
:100E800041F28831884201D90320D3E7B84800688D
:100E9000C0F340400028F0D012E0FFF704FB054605
:100EA00008E0FFF700FB401B41F28831884201D97E
:100EB0000320BFE7AE480068C0F340400028F0D1EF
:100EC000207800F00200022864D1A94808300068A8
:100ED00000F00C0060B1A6480830006800F00C007B
:100EE00008281ED1A248001D006800F48000C0B987
:100EF0009F480068C0F3400020B1E068012801D09D
:100F0000012097E79A48006820F0F800F82292FA4A
:100F1000A2F2B2FA82F22169914008439449086032
:100F200038E0E06810B3012095490860FFF7BBFA8C
:100F3000054606E0FFF7B7FA401B642801D90320F5
:100F400078E78B480068C0F340000028F2D088485A
:100F5000006820F0F800F82292FAA2F2B2FA82F2C7
:100F60002169914008438249086013E000208449C8
:100F70000860FFF798FA054606E0FFF794FA401B71
:100F8000642801D9032055E779480068C0F3400080
:100F90000028F2D1207800F0080008282CD16069E0
:100FA000A8B1012077490860FFF77DFA054606E001
:100FB000FFF779FA401B642801D903203AE76C480F
:100FC00074300068C0F340000028F1D014E0002025
:100FD0006C490860FFF767FA054606E0FFF763FA19
:100FE000401B642801D9032024E76148743000685D
:100FF000C0F340000028F1D1207800F0040004285C
:1010000066D15B484030006840F08050584940311C
:1010100008605D48006840F480705B490860FFF735
:1010200042FA054606E0FFF73EFA401B642801D964
:101030000320FFE65448006800F480700028F2D0D6
:1010400000204B4970310870FFF72DFA054608E083
:10105000FFF729FA401B41F28831884201D9032069
:10106000E8E6434870300068C0F340000028EFD144
:10107000207A3F4970310870A068012814D1FFF729
:1010800012FA054608E0FFF70EFA401B41F28831DC
:10109000884201D90320CDE6354870300068C0F39E
:1010A00040000028EFD013E0FFF7FDF9054608E007
:1010B000FFF7F9F9401B41F28831884201D903203A
:1010C000B8E62B4870300068C0F340000028EFD12C
:1010D000A069E0B326480830006800F00C0008283A
:1010E00078D0A06902285FD1002025490866FFF763
:1010F000DAF9054606E0FFF7D6F9401B642801D966
:10110000032097E61A480068C0F340600028F2D137
:10111000206A40F0005047F6C07292FAA2F2B2FA8A
:1011200082F2616A914008430122A16AC2EB510137
:101130004FF4403292FAA2F2B2FA82F2914008439E
:10114000E16908434FF0706292FAA2F200E043E0D6
:10115000B2FA82F2E16A914008430549091D08602C
:10116000012007490866FFF79EF9054615E00000D3
:1011700000380240FFFFF6FA103000040030002073
:1011800000004742800E474200700040FFF78BF995
:10119000401B642801D903204CE6FE480068C0F3D8
:1011A00040600028F2D017E00020FB490866FFF7F6
:1011B0007AF9054607E0FFF776F9401B642802D963
:1011C000032037E606E0F3480068C0F340600028DB
:1011D000F1D101E001202DE600202BE670B5044698
:1011E0000D460026ED48006800F00F00A8426FD2BF
:1011F000EA490D700846006800F00F00A84201D0CF
:10120000012070BD207800F00200022809D1E148D9
:101210000830006820F0F000A1680843DD4908317B
:101220000860207800F0010000283BD060680128A9
:1012300006D1D8480068C0F3404090B90120E0E7EB
:101240006068022806D1D3480068C0F3406040B906
:101250000120D6E7CF480068C0F3400008B901205C
:10126000CFE7CC480830006820F0030061680843ED
:10127000C84908310860FFF716F90646606801287A
:1012800011D108E0FFF70FF9801B41F28831884245
:1012900001D90320B5E7BF480830006800F00C0012
:1012A0000428EFD1A8E06068022812D108E0FFF717
:1012B000FAF8801B41F28831884201D90320A0E767
:1012C000B4480830006800F00C000828EFD193E023
:1012D00011E008E0FFF7E7F8801B41F2883188420F
:1012E00001D903208DE7AB480830006800F00C00FE
:1012F0000028EFD180E0207800F00200022809D118
:10130000A4480830006820F0F000A1680843A14913
:1013100008310860207800F00100002862D0606881
:10132000012806D19B480068C0F3404090B90120D5
:1013300067E76068022806D196480068C0F34060FD
:1013400040B901205DE793480068C0F3400008B948
:10135000012056E78F480830006820F003006168DC
:1013600008438C4908310860FFF79DF8064660681D
:10137000012811D108E0FFF796F8801B41F288316F
:10138000884201D903203CE782480830006800F019
:101390000C000428EFD125E06068022811D108E094
:1013A000FFF781F8801B41F28831884201D9032080
:1013B00027E778480830006800F00C000828EFD1D3
:1013C00010E008E0FFF76FF8801B41F28831884297
:1013D00001D9032015E76F480830006800F00C00C1
:1013E0000028EFD16D490D700846006800F00F002D
:1013F000A84201D0012004E7207800F0040004286E
:1014000009D164480830006820F4E050E1680843DE
:10141000604908310860207800F0080008280AD1E7
:101420005C480830006820F46040216940EAC1004F
:101430005849083108600F20FEF7E1FF0020E0E680
:1014400070B586B006460C46154606BB514830308E
:10145000006840F001004F49303108608815019064
:10146000022002900320049000200390059001A91F
:101470004B48FFF7EFF947480830006820F0EC6070
:1014800044EA050108434349083108601FE0414828
:101490003030006840F004003E49303108604815A3
:1014A00001900220029003200490002003900590F8
:1014B00001A93C48FFF7CEF936480830006820F013
:1014C000784044EAC501084332490831086006B053
:1014D00070BD01203049C864704700202E49C8649F
:1014E000704770B50021002200230020294C0834E9
:1014F000246804F00C0424B1042C04D0082C57D127
:1015000003E0294856E0294854E0224C241D246871
:1015100004F03F011F4C241D246804F480044FF4A0
:10152000800595FAA5F5B5FA85F5EC4084B11F4C18
:10153000B4FBF1F5174C241D246847F6C0763440FF
:1015400096FAA6F6B6FA86F6F44005FB04F20FE02A
:10155000154CB4FBF1F50F4C241D246847F6C076FA
:10156000344096FAA6F6B6FA86F6F44005FB04F285
:10157000084C241D246804F440344FF4403595FA97
:10158000A5F5B5FA85F5EC40641C6300B2FBF3F0F9
:1015900010E000000038024000004742003C0240DA
:1015A00000000240000802400024F40040787D0161
:1015B0007E4800BF00BF70BD00B5FFF792FF7C49B9
:1015C000096801F0F001F02292FAA2F2B2FA82F276
:1015D000D140784A515CC8407749086008460068A5
:1015E00000BD00B5FFF7E8FF7149096801F4E0515B
:1015F0004FF4E05292FAA2F2B2FA82F2D1406D4A6E
:10160000515CC84000BD00B5FFF7D6FF68490968C6
:1016100001F460414FF4604292FAA2F2B2FA82F20F
:10162000D140644A515CC84000BD0F21016060494F
:101630000839096801F48021B1F5802F02D1052114
:1016400041600CE05A490839096801F48031B1F56C
:10165000803F02D10121416001E0002141605449F5
:101660000839096801F0010111B10121C16001E0EF
:101670000021C1604E490839096801F0F801F822DB
:1016800092FAA2F2B2FA82F2D1400161484968317D
:10169000096801F00401042902D1052181600AE0F2
:1016A00043496831096801F0010111B101218160EC
:1016B00001E0002181603E496C31096801F00101BF
:1016C00011B10121416101E000214161384908392E
:1016D000096801F08071B1F1807F02D1022181613E
:1016E00001E0012181613249091F096801F480028A
:1016F000C2612F49091F096801F03F0202622C49AB
:10170000091F096847F6C072114092FAA2F2B2FAB4
:1017100082F2D14041622649091F096801F4403133
:1017200001F5803149004FF4403292FAA2F2B2FA48
:1017300082F2D14081621E49091F096801F070617F
:101740004FF0706292FAA2F2B2FA82F2D140C16214
:1017500070470F220260164A126802F003024260CC
:10176000134A126802F0F0028260114A126802F411
:10177000E052C2600E4A126802F46042D20802616E
:101780000E4A126802F00F020A607047704710B5E7
:101790000748001D006800F08000802805D1FFF791
:1017A000F5FF80200249891D087010BD0024F40057
:1017B000083802404E19000814000020003C024086
:1017C0000648804706480047FEE7FEE7FEE7FEE7DB
:1017D000FEE7FEE7FEE7FEE7FEE7FEE7E5170008A7
:1017E000AD0100083F48006840F470003D490860C2
:1017F0003D48006840F001003B49086000203A493C
:10180000083108603848006838490840364908609F
:101810003748091D0860081F006820F48020091F50
:101820000860002030490C3108604FF000602D49FD
:1018300080390860704770B5002000220223002420
:101840000221294D08352D6805F00C0020B104282F
:1018500006D0082834D107E0264D274E356033E006
:10186000264D254E35602FE01F4D2D1D2D68C5F3EB
:1018700080541D4D2D1D2D6805F03F0154B11F4DA5
:10188000B5FBF1F5184E361D3668C6F3881605FB14
:1018900006F209E0174DB5FBF1F5134E361D36681B
:1018A000C6F3881605FB06F20F4D2D1D2D68C5F3F6
:1018B00001456D1C6B00B2FBF3F50F4E356003E084
:1018C0000C4D0D4E356000BF00BF074D08352D682B
:1018D000C5F303150A4E705D074D2D68C540064ED1
:1018E000356070BD88ED00E000380240FFFFF6FE75
:1018F000103000240024F4001400002000127A00AC
:1019000018000020064C074D06E0E06840F0010397
:1019100094E8070098471034AC42F6D3FEF74AFC2F
:10192000601900088019000802E008C8121F08C1E9
:10193000002AFAD170477047002001E001C1121F50
:10194000002AFBD1704700010002000400080000DB
:101950000000010203040102030406070809000055
:101960008019000800000020280000002819000845
:10197000A8190008280000200004000038190008F9
:1019800000200240002002400020024000200240CF
:10199000000000000024F40000000000000000002F
:0819A000010203040607080917
:04000005080001AD41
:00000001FF
